{
  "contractName": "EnergyAuction",
  "abi": [
    {
      "inputs": [],
      "payable": false,
      "stateMutability": "nonpayable",
      "type": "constructor"
    },
    {
      "anonymous": false,
      "inputs": [
        {
          "indexed": true,
          "name": "_usageId",
          "type": "bytes32"
        },
        {
          "indexed": true,
          "name": "_deviceId",
          "type": "bytes32"
        },
        {
          "indexed": false,
          "name": "_timestamp",
          "type": "uint256"
        },
        {
          "indexed": false,
          "name": "_watt",
          "type": "uint256"
        }
      ],
      "name": "DeviceUsageRegistered",
      "type": "event"
    },
    {
      "anonymous": false,
      "inputs": [
        {
          "indexed": true,
          "name": "_auctionId",
          "type": "bytes32"
        },
        {
          "indexed": false,
          "name": "_totalSavedWatt",
          "type": "uint256"
        },
        {
          "indexed": false,
          "name": "_totalPayout",
          "type": "uint256"
        }
      ],
      "name": "PledgeSuccessful",
      "type": "event"
    },
    {
      "constant": false,
      "inputs": [
        {
          "name": "_userId",
          "type": "bytes32"
        },
        {
          "name": "_userType",
          "type": "uint8"
        },
        {
          "name": "_userAddress",
          "type": "address"
        },
        {
          "name": "_deviceId",
          "type": "bytes32"
        },
        {
          "name": "_deviceType",
          "type": "uint8"
        }
      ],
      "name": "createUser",
      "outputs": [],
      "payable": false,
      "stateMutability": "nonpayable",
      "type": "function"
    },
    {
      "constant": false,
      "inputs": [
        {
          "name": "_auctionId",
          "type": "bytes32"
        },
        {
          "name": "_totalIncentive",
          "type": "uint256"
        },
        {
          "name": "_wattHourGoalSavings",
          "type": "uint256"
        },
        {
          "name": "_bidStartTimestamp",
          "type": "uint256"
        },
        {
          "name": "_bidEndTimestamp",
          "type": "uint256"
        },
        {
          "name": "_offStartTimestamp",
          "type": "uint256"
        },
        {
          "name": "_offEndTimeStamp",
          "type": "uint256"
        },
        {
          "name": "_users",
          "type": "address[]"
        }
      ],
      "name": "createAuction",
      "outputs": [],
      "payable": false,
      "stateMutability": "nonpayable",
      "type": "function"
    },
    {
      "constant": false,
      "inputs": [
        {
          "name": "_auctionId",
          "type": "bytes32"
        },
        {
          "name": "_bidId",
          "type": "bytes32"
        },
        {
          "name": "_bidAmount",
          "type": "uint256"
        },
        {
          "name": "_timestampFrom",
          "type": "uint256"
        },
        {
          "name": "_timestampTo",
          "type": "uint256"
        },
        {
          "name": "_watt",
          "type": "uint256"
        }
      ],
      "name": "placeBid",
      "outputs": [],
      "payable": false,
      "stateMutability": "nonpayable",
      "type": "function"
    },
    {
      "constant": false,
      "inputs": [
        {
          "name": "_usageId",
          "type": "bytes32"
        },
        {
          "name": "_watt",
          "type": "uint256"
        }
      ],
      "name": "registerDeviceUsage",
      "outputs": [],
      "payable": false,
      "stateMutability": "nonpayable",
      "type": "function"
    },
    {
      "constant": false,
      "inputs": [
        {
          "name": "_userAddress",
          "type": "address"
        }
      ],
      "name": "getUser",
      "outputs": [
        {
          "name": "",
          "type": "bytes32"
        },
        {
          "name": "",
          "type": "bytes32"
        },
        {
          "name": "",
          "type": "uint8"
        },
        {
          "name": "",
          "type": "address"
        },
        {
          "name": "",
          "type": "uint8"
        },
        {
          "name": "",
          "type": "uint256"
        }
      ],
      "payable": false,
      "stateMutability": "nonpayable",
      "type": "function"
    },
    {
      "constant": false,
      "inputs": [
        {
          "name": "_auctionId",
          "type": "bytes32"
        }
      ],
      "name": "getAuction",
      "outputs": [
        {
          "name": "",
          "type": "bytes32"
        },
        {
          "name": "",
          "type": "uint256"
        },
        {
          "name": "",
          "type": "uint256"
        },
        {
          "name": "",
          "type": "uint256"
        },
        {
          "name": "",
          "type": "uint256"
        },
        {
          "name": "",
          "type": "uint256"
        },
        {
          "name": "",
          "type": "uint256"
        }
      ],
      "payable": false,
      "stateMutability": "nonpayable",
      "type": "function"
    },
    {
      "constant": false,
      "inputs": [
        {
          "name": "_auctionId",
          "type": "bytes32"
        }
      ],
      "name": "getAuctionBids",
      "outputs": [
        {
          "name": "",
          "type": "bytes32[]"
        },
        {
          "name": "",
          "type": "uint256[]"
        },
        {
          "name": "",
          "type": "uint256[]"
        }
      ],
      "payable": false,
      "stateMutability": "nonpayable",
      "type": "function"
    },
    {
      "constant": false,
      "inputs": [
        {
          "name": "_auctionId",
          "type": "bytes32"
        },
        {
          "name": "_bidIds",
          "type": "bytes32[]"
        }
      ],
      "name": "registerWinningBids",
      "outputs": [],
      "payable": false,
      "stateMutability": "nonpayable",
      "type": "function"
    },
    {
      "constant": false,
      "inputs": [
        {
          "name": "_auctionId",
          "type": "bytes32"
        }
      ],
      "name": "getWinningBids",
      "outputs": [
        {
          "name": "",
          "type": "bytes32[]"
        },
        {
          "name": "",
          "type": "bytes32[]"
        },
        {
          "name": "",
          "type": "uint256[]"
        },
        {
          "name": "",
          "type": "uint256[]"
        }
      ],
      "payable": false,
      "stateMutability": "nonpayable",
      "type": "function"
    },
    {
      "constant": false,
      "inputs": [
        {
          "name": "_auctionId",
          "type": "bytes32"
        }
      ],
      "name": "getParticipatingDevicesInAuctionPledge",
      "outputs": [
        {
          "name": "",
          "type": "bytes32[]"
        },
        {
          "name": "",
          "type": "bytes32[]"
        },
        {
          "name": "",
          "type": "uint256[]"
        },
        {
          "name": "",
          "type": "uint256[]"
        }
      ],
      "payable": false,
      "stateMutability": "nonpayable",
      "type": "function"
    },
    {
      "constant": false,
      "inputs": [
        {
          "name": "_auctionId",
          "type": "bytes32"
        },
        {
          "name": "_bidIds",
          "type": "bytes32[]"
        },
        {
          "name": "_usageIds",
          "type": "bytes32[]"
        }
      ],
      "name": "incentivisePledgeKeepers",
      "outputs": [],
      "payable": false,
      "stateMutability": "nonpayable",
      "type": "function"
    }
  ],
  "bytecode": "0x608060405234801561001057600080fd5b5061c350600160003373ffffffffffffffffffffffffffffffffffffffff1673ffffffffffffffffffffffffffffffffffffffff16815260200190815260200160002081905550612634806100666000396000f3fe6080604052600436106100af576000357c0100000000000000000000000000000000000000000000000000000000900463ffffffff1680630b8889be146100b457806315924b5b1461021c5780633813e6ca146102955780636c5c39af146103025780636f77926b1461046a5780638967998f1461053a5780639b680e7d1461069d578063a544d378146107bd578063a5cb5a6414610802578063b1e44e6e14610881578063dfd400ab14610950575b600080fd5b3480156100c057600080fd5b506100ed600480360360208110156100d757600080fd5b8101908080359060200190929190505050610a5c565b6040518080602001806020018060200180602001858103855289818151815260200191508051906020019060200280838360005b8381101561013c578082015181840152602081019050610121565b50505050905001858103845288818151815260200191508051906020019060200280838360005b8381101561017e578082015181840152602081019050610163565b50505050905001858103835287818151815260200191508051906020019060200280838360005b838110156101c05780820151818401526020810190506101a5565b50505050905001858103825286818151815260200191508051906020019060200280838360005b838110156102025780820151818401526020810190506101e7565b505050509050019850505050505050505060405180910390f35b34801561022857600080fd5b506102556004803603602081101561023f57600080fd5b8101908080359060200190929190505050610d36565b6040518088815260200187815260200186815260200185815260200184815260200183815260200182815260200197505050505050505060405180910390f35b3480156102a157600080fd5b50610300600480360360c08110156102b857600080fd5b81019080803590602001909291908035906020019092919080359060200190929190803590602001909291908035906020019092919080359060200190929190505050610ded565b005b34801561030e57600080fd5b5061033b6004803603602081101561032557600080fd5b8101908080359060200190929190505050611177565b6040518080602001806020018060200180602001858103855289818151815260200191508051906020019060200280838360005b8381101561038a57808201518184015260208101905061036f565b50505050905001858103845288818151815260200191508051906020019060200280838360005b838110156103cc5780820151818401526020810190506103b1565b50505050905001858103835287818151815260200191508051906020019060200280838360005b8381101561040e5780820151818401526020810190506103f3565b50505050905001858103825286818151815260200191508051906020019060200280838360005b83811015610450578082015181840152602081019050610435565b505050509050019850505050505050505060405180910390f35b34801561047657600080fd5b506104b96004803603602081101561048d57600080fd5b81019080803573ffffffffffffffffffffffffffffffffffffffff16906020019092919050505061156f565b604051808781526020018681526020018560028111156104d557fe5b60ff1681526020018473ffffffffffffffffffffffffffffffffffffffff1673ffffffffffffffffffffffffffffffffffffffff16815260200183600181111561051b57fe5b60ff168152602001828152602001965050505050505060405180910390f35b34801561054657600080fd5b5061069b6004803603606081101561055d57600080fd5b81019080803590602001909291908035906020019064010000000081111561058457600080fd5b82018360208201111561059657600080fd5b803590602001918460208302840111640100000000831117156105b857600080fd5b919080806020026020016040519081016040528093929190818152602001838360200280828437600081840152601f19601f8201169050808301925050505050505091929192908035906020019064010000000081111561061857600080fd5b82018360208201111561062a57600080fd5b8035906020019184602083028401116401000000008311171561064c57600080fd5b919080806020026020016040519081016040528093929190818152602001838360200280828437600081840152601f19601f820116905080830192505050505050509192919290505050611720565b005b3480156106a957600080fd5b506106d6600480360360208110156106c057600080fd5b8101908080359060200190929190505050611a29565b60405180806020018060200180602001848103845287818151815260200191508051906020019060200280838360005b83811015610721578082015181840152602081019050610706565b50505050905001848103835286818151815260200191508051906020019060200280838360005b83811015610763578082015181840152602081019050610748565b50505050905001848103825285818151815260200191508051906020019060200280838360005b838110156107a557808201518184015260208101905061078a565b50505050905001965050505050505060405180910390f35b3480156107c957600080fd5b50610800600480360360408110156107e057600080fd5b810190808035906020019092919080359060200190929190505050611d86565b005b34801561080e57600080fd5b5061087f600480360360a081101561082557600080fd5b8101908080359060200190929190803560ff169060200190929190803573ffffffffffffffffffffffffffffffffffffffff16906020019092919080359060200190929190803560ff169060200190929190505050611e82565b005b34801561088d57600080fd5b5061094e600480360360408110156108a457600080fd5b8101908080359060200190929190803590602001906401000000008111156108cb57600080fd5b8201836020820111156108dd57600080fd5b803590602001918460208302840111640100000000831117156108ff57600080fd5b919080806020026020016040519081016040528093929190818152602001838360200280828437600081840152601f19601f8201169050808301925050505050505091929192905050506121d7565b005b34801561095c57600080fd5b50610a5a600480360361010081101561097457600080fd5b8101908080359060200190929190803590602001909291908035906020019092919080359060200190929190803590602001909291908035906020019092919080359060200190929190803590602001906401000000008111156109d757600080fd5b8201836020820111156109e957600080fd5b80359060200191846020830284011164010000000083111715610a0b57600080fd5b919080806020026020016040519081016040528093929190818152602001838360200280828437600081840152601f19601f820116905080830192505050505050509192919290505050612203565b005b606080606080606060076000878152602001908152602001600020805480602002602001604051908101604052809291908181526020018280548015610ac157602002820191906000526020600020905b815481526020019060010190808311610aad575b5050505050905060608151604051908082528060200260200182016040528015610afa5781602001602082028038833980820191505090505b50905060608251604051908082528060200260200182016040528015610b2f5781602001602082028038833980820191505090505b50905060608351604051908082528060200260200182016040528015610b645781602001602082028038833980820191505090505b50905060008090505b8451811015610d1e57610b7e61245b565b600460008784815181101515610b9057fe5b90602001906020020151815260200190815260200160002060c06040519081016040529081600082015481526020016001820160009054906101000a900473ffffffffffffffffffffffffffffffffffffffff1673ffffffffffffffffffffffffffffffffffffffff1673ffffffffffffffffffffffffffffffffffffffff168152602001600282015481526020016003820154815260200160048201548152602001600582015481525050905080600001518683815181101515610c5157fe5b906020019060200201818152505080604001518583815181101515610c7257fe5b906020019060200201818152505060026000826020015173ffffffffffffffffffffffffffffffffffffffff1673ffffffffffffffffffffffffffffffffffffffff168152602001908152602001600020600001548383815181101515610cd557fe5b90602001906020020181815250508060a001518160600151826080015103028483815181101515610d0257fe5b9060200190602002018181525050508080600101915050610b6d565b50838184849750975097509750505050509193509193565b6000806000806000806000610d496124ab565b600360008a815260200190815260200160002060e060405190810160405290816000820154815260200160018201548152602001600282015481526020016003820154815260200160048201548152602001600582015481526020016006820154815250509050806000015181602001518260400151836060015184608001518560a001518660c00151975097509750975097509750975050919395979092949650565b610df56124ab565b6003600088815260200190815260200160002060e060405190810160405290816000820154815260200160018201548152602001600282015481526020016003820154815260200160048201548152602001600582015481526020016006820154815250509050600042905080826060015111158015610e79575080826080015110155b1515610eed576040517f08c379a000000000000000000000000000000000000000000000000000000000815260040180806020018281038252601f8152602001807f4269642074696d65206861732070617373656420666f722061756374696f6e0081525060200191505060405180910390fd5b8160a001518510158015610f0557508160c001518511155b1515610f9f576040517f08c379a00000000000000000000000000000000000000000000000000000000081526004018080602001828103825260368152602001807f4f66662053746172742074696d652073686f756c642066616c6c20756e64657281526020017f2061756374696f6e206f66662074696d657374616d700000000000000000000081525060400191505060405180910390fd5b8160a001518410158015610fb757508160c001518411155b1515611051576040517f08c379a00000000000000000000000000000000000000000000000000000000081526004018080602001828103825260368152602001807f4f66662053746172742074696d652073686f756c642066616c6c20756e64657281526020017f2061756374696f6e206f66662074696d657374616d700000000000000000000081525060400191505060405180910390fd5b61105961245b565b60c0604051908101604052808981526020013373ffffffffffffffffffffffffffffffffffffffff16815260200188815260200187815260200186815260200185815250905080600460008a81526020019081526020016000206000820151816000015560208201518160010160006101000a81548173ffffffffffffffffffffffffffffffffffffffff021916908373ffffffffffffffffffffffffffffffffffffffff16021790555060408201518160020155606082015181600301556080820151816004015560a08201518160050155905050600560008a8152602001908152602001600020889080600181540180825580915050906001820390600052602060002001600090919290919091505550505050505050505050565b6060806060806060600760008781526020019081526020016000208054806020026020016040519081016040528092919081815260200182805480156111dc57602002820191906000526020600020905b8154815260200190600101908083116111c8575b50505050509050606081516040519080825280602002602001820160405280156112155781602001602082028038833980820191505090505b5090506060825160405190808252806020026020018201604052801561124a5781602001602082028038833980820191505090505b5090506060835160405190808252806020026020018201604052801561127f5781602001602082028038833980820191505090505b509050606084516040519080825280602002602001820160405280156112b45781602001602082028038833980820191505090505b50905060008090505b8551811015611556576112ce61245b565b6004600088848151811015156112e057fe5b90602001906020020151815260200190815260200160002060c06040519081016040529081600082015481526020016001820160009054906101000a900473ffffffffffffffffffffffffffffffffffffffff1673ffffffffffffffffffffffffffffffffffffffff1673ffffffffffffffffffffffffffffffffffffffff16815260200160028201548152602001600382015481526020016004820154815260200160058201548152505090506113966124ec565b60026000836020015173ffffffffffffffffffffffffffffffffffffffff1673ffffffffffffffffffffffffffffffffffffffff168152602001908152602001600020608060405190810160405290816000820154815260200160018201604080519081016040529081600082015481526020016001820160009054906101000a900460ff16600281111561142757fe5b600281111561143257fe5b8152505081526020016003820160009054906101000a900473ffffffffffffffffffffffffffffffffffffffff1673ffffffffffffffffffffffffffffffffffffffff1673ffffffffffffffffffffffffffffffffffffffff1681526020016003820160149054906101000a900460ff1660018111156114ae57fe5b60018111156114b957fe5b81525050905080602001516000015187848151811015156114d657fe5b9060200190602002018181525050816000015186848151811015156114f757fe5b90602001906020020181815250508160600151858481518110151561151857fe5b90602001906020020181815250508160800151848481518110151561153957fe5b9060200190602002018181525050505080806001019150506112bd565b5083838383985098509850985050505050509193509193565b6000806000806000806115806124ec565b600260008973ffffffffffffffffffffffffffffffffffffffff1673ffffffffffffffffffffffffffffffffffffffff168152602001908152602001600020608060405190810160405290816000820154815260200160018201604080519081016040529081600082015481526020016001820160009054906101000a900460ff16600281111561160d57fe5b600281111561161857fe5b8152505081526020016003820160009054906101000a900473ffffffffffffffffffffffffffffffffffffffff1673ffffffffffffffffffffffffffffffffffffffff1673ffffffffffffffffffffffffffffffffffffffff1681526020016003820160149054906101000a900460ff16600181111561169457fe5b600181111561169f57fe5b81525050905080600001518160200151600001518260200151602001518360400151846060015160016000876040015173ffffffffffffffffffffffffffffffffffffffff1673ffffffffffffffffffffffffffffffffffffffff168152602001908152602001600020549650965096509650965096505091939550919395565b6000809050600080905060008090505b84518110156119525761174161245b565b60046000878481518110151561175357fe5b90602001906020020151815260200190815260200160002060c06040519081016040529081600082015481526020016001820160009054906101000a900473ffffffffffffffffffffffffffffffffffffffff1673ffffffffffffffffffffffffffffffffffffffff1673ffffffffffffffffffffffffffffffffffffffff16815260200160028201548152602001600382015481526020016004820154815260200160058201548152505090506118578160400151600160003373ffffffffffffffffffffffffffffffffffffffff1673ffffffffffffffffffffffffffffffffffffffff1681526020019081526020016000205461234690919063ffffffff16565b600160003373ffffffffffffffffffffffffffffffffffffffff1673ffffffffffffffffffffffffffffffffffffffff168152602001908152602001600020819055506118f4816040015160016000846020015173ffffffffffffffffffffffffffffffffffffffff1673ffffffffffffffffffffffffffffffffffffffff168152602001908152602001600020546123d190919063ffffffff16565b60016000836020015173ffffffffffffffffffffffffffffffffffffffff1673ffffffffffffffffffffffffffffffffffffffff16815260200190815260200160002081905550806040015184019350508080600101915050611730565b5060008090505b83518110156119e15761196a61253f565b60066000868481518110151561197c57fe5b906020019060200201518152602001908152602001600020608060405190810160405290816000820154815260200160018201548152602001600282015481526020016003820154815250509050806060015183019250508080600101915050611959565b50847fe90fd5945535f9a6b36a74dc48057d84adf4aa2db24ddd003fa1879ac5da33be8284604051808381526020018281526020019250505060405180910390a25050505050565b6060806060611a366124ab565b6003600086815260200190815260200160002060e060405190810160405290816000820154815260200160018201548152602001600282015481526020016003820154815260200160048201548152602001600582015481526020016006820154815250509050428160600151108015611ab35750806080015142115b1515611b4d576040517f08c379a000000000000000000000000000000000000000000000000000000000815260040180806020018281038252602a8152602001807f426964732073686f756c6420626520666574636865642061667465722062696481526020017f20697320636c6f7365640000000000000000000000000000000000000000000081525060400191505060405180910390fd5b606060056000878152602001908152602001600020805480602002602001604051908101604052809291908181526020018280548015611bac57602002820191906000526020600020905b815481526020019060010190808311611b98575b5050505050905060608151604051908082528060200260200182016040528015611be55781602001602082028038833980820191505090505b50905060608251604051908082528060200260200182016040528015611c1a5781602001602082028038833980820191505090505b50905060008090505b8351811015611d7157611c3461245b565b600460008684815181101515611c4657fe5b90602001906020020151815260200190815260200160002060c06040519081016040529081600082015481526020016001820160009054906101000a900473ffffffffffffffffffffffffffffffffffffffff1673ffffffffffffffffffffffffffffffffffffffff1673ffffffffffffffffffffffffffffffffffffffff168152602001600282015481526020016003820154815260200160048201548152602001600582015481525050905080600001518583815181101515611d0757fe5b906020019060200201818152505080604001518483815181101515611d2857fe5b90602001906020020181815250508060a001518160600151826080015103028383815181101515611d5557fe5b9060200190602002018181525050508080600101915050611c23565b50828282965096509650505050509193909250565b6000600260003373ffffffffffffffffffffffffffffffffffffffff1673ffffffffffffffffffffffffffffffffffffffff168152602001908152602001600020600101600001549050611dd861253f565b60806040519081016040528085815260200183815260200142815260200184815250905080600660008681526020019081526020016000206000820151816000015560208201518160010155604082015181600201556060820151816003015590505081847f413c7f69b16b85c62f07009f09af843b542f4a7e7c66d29f193de0fd32fb33064286604051808381526020018281526020019250505060405180910390a350505050565b611e8a6124ec565b600260003373ffffffffffffffffffffffffffffffffffffffff1673ffffffffffffffffffffffffffffffffffffffff168152602001908152602001600020608060405190810160405290816000820154815260200160018201604080519081016040529081600082015481526020016001820160009054906101000a900460ff166002811115611f1757fe5b6002811115611f2257fe5b8152505081526020016003820160009054906101000a900473ffffffffffffffffffffffffffffffffffffffff1673ffffffffffffffffffffffffffffffffffffffff1673ffffffffffffffffffffffffffffffffffffffff1681526020016003820160149054906101000a900460ff166001811115611f9e57fe5b6001811115611fa957fe5b81525050905060006001811115611fbc57fe5b81606001516001811115611fcc57fe5b141515612067576040517f08c379a000000000000000000000000000000000000000000000000000000000815260040180806020018281038252602b8152602001807f4f6e6c79204e474f2074797065206f6620557365722063616e20646f2074686981526020017f73206f7065726174696f6e00000000000000000000000000000000000000000081525060400191505060405180910390fd5b61206f6124ec565b608060405190810160405280888152602001604080519081016040528087815260200186600281111561209e57fe5b81525081526020018673ffffffffffffffffffffffffffffffffffffffff1681526020018760018111156120ce57fe5b815250905080600260008773ffffffffffffffffffffffffffffffffffffffff1673ffffffffffffffffffffffffffffffffffffffff168152602001908152602001600020600082015181600001556020820151816001016000820151816000015560208201518160010160006101000a81548160ff0219169083600281111561215457fe5b0217905550505060408201518160030160006101000a81548173ffffffffffffffffffffffffffffffffffffffff021916908373ffffffffffffffffffffffffffffffffffffffff16021790555060608201518160030160146101000a81548160ff021916908360018111156121c657fe5b021790555090505050505050505050565b806007600084815260200190815260200160002090805190602001906121fe92919061256e565b505050565b61220b6124ab565b60e0604051908101604052808a815260200189815260200188815260200187815260200186815260200185815260200184815250905060008090505b82518110156122dd576001600860008c81526020019081526020016000206000858481518110151561227557fe5b9060200190602002015173ffffffffffffffffffffffffffffffffffffffff1673ffffffffffffffffffffffffffffffffffffffff16815260200190815260200160002060006101000a81548160ff0219169083151502179055508080600101915050612247565b5080600360008b8152602001908152602001600020600082015181600001556020820151816001015560408201518160020155606082015181600301556080820151816004015560a0820151816005015560c08201518160060155905050505050505050505050565b60008282111515156123c0576040517f08c379a000000000000000000000000000000000000000000000000000000000815260040180806020018281038252601e8152602001807f536166654d6174683a207375627472616374696f6e206f766572666c6f77000081525060200191505060405180910390fd5b600082840390508091505092915050565b6000808284019050838110151515612451576040517f08c379a000000000000000000000000000000000000000000000000000000000815260040180806020018281038252601b8152602001807f536166654d6174683a206164646974696f6e206f766572666c6f77000000000081525060200191505060405180910390fd5b8091505092915050565b60c06040519081016040528060008019168152602001600073ffffffffffffffffffffffffffffffffffffffff168152602001600081526020016000815260200160008152602001600081525090565b60e060405190810160405280600080191681526020016000815260200160008152602001600081526020016000815260200160008152602001600081525090565b60a0604051908101604052806000801916815260200161250a6125bb565b8152602001600073ffffffffffffffffffffffffffffffffffffffff1681526020016000600181111561253957fe5b81525090565b608060405190810160405280600080191681526020016000801916815260200160008152602001600081525090565b8280548282559060005260206000209081019282156125aa579160200282015b828111156125a957825182559160200191906001019061258e565b5b5090506125b791906125e3565b5090565b604080519081016040528060008019168152602001600060028111156125dd57fe5b81525090565b61260591905b808211156126015760008160009055506001016125e9565b5090565b9056fea165627a7a72305820ead5547ce72f4104fe00d306b476647b53c51a7d74c151d7a954e8a4f324ded70029",
  "source": "pragma solidity ^0.5.0;\r\n\r\nimport \"./ERC20.sol\";\r\nimport \"./math/SafeMath.sol\";\r\n\r\ncontract EnergyAuction {\r\n\r\nusing SafeMath for uint256;\r\n\r\n//----------------ENUM DECLARATIONS------------------  \r\nenum DeviceType {NONE, HVAC, Refrigerator} DeviceType dt;\r\nenum UserType {NGO, END_USER} UserType ut;\r\n\r\n    //ERC20 private erc20;\r\n\r\n    constructor () public {\r\n        balanceRegistry[msg.sender] = 50000;\r\n    }\r\n\r\n    //mapping of user balances\r\n    mapping(address => uint256) balanceRegistry;\r\n    //mapping of user id and users\r\n    mapping(address => User) userRegistry;\r\n    //mapping of auction id and auction objects\r\n    mapping(bytes32 => Auction) auctionRegistry;\r\n\r\n    //mapping of bidId and bids\r\n    mapping(bytes32 => Bid) bidRegistry;\r\n\r\n    //mapping auctionId -> array of bid Ids\r\n    mapping(bytes32 => bytes32[]) auctionBidIdsRegistry;\r\n\r\n    //mapping usageId -> device usage\r\n    mapping(bytes32 => DeviceUsage) deviceStatsRegistry;\r\n\r\n    //mapping auction id -> bid Ids\r\n    mapping(bytes32 => bytes32[]) winningBidsRegistry;\r\n\r\n    //auction Id -> object of Bid Result\r\n    //mapping(bytes32 => BidResult) bidResults;\r\n\r\n    //mapping from auction id to selected users by the agent\r\n    mapping (bytes32 => mapping (address => bool)) auctionSelectedUsers;\r\n\r\n\r\n    //event defintions\r\n    event DeviceUsageRegistered(bytes32 indexed _usageId, bytes32 indexed _deviceId, uint256 _timestamp, uint256 _watt);\r\n    event PledgeSuccessful(bytes32 indexed _auctionId, uint256 _totalSavedWatt, uint256 _totalPayout);\r\n\r\n    //user struct\r\n    struct User{\r\n        bytes32 userId;\r\n        Device device;\r\n        address userAddress;\r\n        UserType userType;\r\n    }\r\n    //device struct\r\n    struct Device{\r\n        bytes32 deviceId;\r\n        DeviceType deviceType;\r\n    }\r\n    //auction struct\r\n    struct Auction{\r\n        bytes32 auctionId;\r\n        uint256 totalIncentive;\r\n        uint256 wattHourGoalSavings;\r\n        uint256 bidStartTimestamp;\r\n        uint256 bidEndTimestamp;\r\n        uint256 offStartTimestamp;\r\n        uint256 offEndTimeStamp;\r\n    }\r\n    //bid struct\r\n    struct Bid {\r\n        bytes32 bidId;\r\n        address userAddress;\r\n        uint256 bidAmount;\r\n        uint256 timestampFrom;\r\n        uint256 timestampTo;\r\n        uint256 watt;\r\n    }\r\n    //bid result struct\r\n    // struct BidResult{\r\n    //     bytes32 auctionId;\r\n    //     uint256 savedWattHour;\r\n    //     uint256 totalPayout;\r\n    // }\r\n    //device usage struct\r\n    struct DeviceUsage {\r\n         bytes32 usageId;\r\n         bytes32 deviceId;\r\n         uint256 timestamp;\r\n         uint256 watt;\r\n    }\r\n    \r\n    modifier onlyAdmin() {\r\n        User memory invokingUser = userRegistry[msg.sender];\r\n        require(invokingUser.userType == UserType.NGO, \"Only NGO type of User can do this operation\");\r\n        _;\r\n    }\r\n\r\n    //Fuctions related to operations on onboarding\r\n    function createUser(bytes32 _userId, UserType _userType, address _userAddress, bytes32 _deviceId, DeviceType _deviceType) public onlyAdmin{\r\n        User memory user = User({\r\n            userId:_userId,\r\n            userType:_userType,\r\n            userAddress:_userAddress,\r\n            device : Device(_deviceId,_deviceType)});\r\n        userRegistry[_userAddress] = user;\r\n    }\r\n\r\n    function createAuction(bytes32 _auctionId, uint256 _totalIncentive, uint256 _wattHourGoalSavings,\r\n        uint256 _bidStartTimestamp,uint256 _bidEndTimestamp,uint256 _offStartTimestamp,uint256 _offEndTimeStamp, address[] memory _users) public {\r\n\r\n        Auction memory auction = Auction({\r\n            auctionId : _auctionId,\r\n            totalIncentive : _totalIncentive,\r\n            wattHourGoalSavings : _wattHourGoalSavings,\r\n            bidStartTimestamp : _bidStartTimestamp,\r\n            bidEndTimestamp : _bidEndTimestamp,\r\n            offStartTimestamp : _offStartTimestamp,\r\n            offEndTimeStamp : _offEndTimeStamp\r\n        });\r\n        for (uint i = 0; i<_users.length; i++) {\r\n            auctionSelectedUsers[_auctionId][_users[i]] = true;\r\n        }\r\n        auctionRegistry[_auctionId] = auction;\r\n    }\r\n\r\n    function placeBid(bytes32 _auctionId, bytes32 _bidId, uint256 _bidAmount,\r\n        uint256 _timestampFrom, uint256 _timestampTo, uint256 _watt) public {\r\n        Auction memory auction = auctionRegistry[_auctionId];\r\n        //check for time\r\n         uint256 currentTimestamp = block.timestamp;\r\n\r\n         require((auction.bidStartTimestamp<=currentTimestamp&&auction.bidEndTimestamp>=currentTimestamp),\r\n             \"Bid time has passed for auction\");\r\n         require(( _timestampFrom>=auction.offStartTimestamp&&_timestampFrom<=auction.offEndTimeStamp),\r\n             \"Off Start time should fall under auction off timestamp\");\r\n         require(( _timestampTo>=auction.offStartTimestamp && _timestampTo<=auction.offEndTimeStamp),\r\n             \"Off Start time should fall under auction off timestamp\");\r\n         //require(( _timestampTo-_timestampFrom > 600000),\"Duration should be more than 10 minutes\");\r\n         //require(_bidAmount < 2,\"Max Bid Amount is 2 tokens\");\r\n\r\n        Bid memory bid = Bid ({\r\n            bidId : _bidId,\r\n            userAddress : msg.sender,\r\n            bidAmount : _bidAmount,\r\n            timestampFrom : _timestampFrom,\r\n            timestampTo : _timestampTo,\r\n            watt : _watt\r\n        });\r\n        bidRegistry[_bidId] = bid;\r\n        auctionBidIdsRegistry[_auctionId].push(_bidId);\r\n    }\r\n\r\n    \r\n\r\n    function registerDeviceUsage (bytes32 _usageId, uint256 _watt) public{\r\n        bytes32 _deviceId = userRegistry[msg.sender].device.deviceId;\r\n        DeviceUsage memory deviceUsage = DeviceUsage ({\r\n             deviceId : _deviceId,\r\n             timestamp: block.timestamp,\r\n             watt:_watt,\r\n             usageId : _usageId\r\n        });\r\n        deviceStatsRegistry[_usageId] = deviceUsage;\r\n        emit DeviceUsageRegistered(_usageId, _deviceId, block.timestamp, _watt);\r\n    }\r\n\r\n    function getUser(address _userAddress) public returns (bytes32, bytes32, DeviceType, address, UserType, uint256) {\r\n        User memory user = userRegistry[_userAddress];\r\n        //uint256 balance = erc20.getBalance(_userAddress);\r\n        return (user.userId, user.device.deviceId, user.device.deviceType, user.userAddress, user.userType, balanceRegistry[user.userAddress]);\r\n    }\r\n\r\n\r\n    function getAuction(bytes32 _auctionId) public returns (bytes32, uint256, uint256, uint256, uint256, uint256, uint256) {\r\n        Auction memory auction = auctionRegistry[_auctionId];\r\n        return (auction.auctionId, auction.totalIncentive, \r\n            auction.wattHourGoalSavings, auction.bidStartTimestamp, \r\n            auction.bidEndTimestamp, auction.offStartTimestamp, auction.offEndTimeStamp);\r\n    }\r\n\r\n    function getAuctionBids (bytes32 _auctionId)  public returns (bytes32[] memory, uint256[] memory, uint256[] memory) {\r\n        //check if bid duration is closed\r\n        Auction memory auction = auctionRegistry[_auctionId];\r\n        \r\n        require ((auction.bidStartTimestamp < block.timestamp && block.timestamp > auction.bidEndTimestamp), \r\n        \"Bids should be fetched after bid is closed\");\r\n        \r\n        bytes32[] memory bidIds = auctionBidIdsRegistry[_auctionId];\r\n        uint256[] memory bidAmount = new uint256[](bidIds.length);\r\n        uint256[] memory wattHour = new uint256[](bidIds.length);\r\n\r\n        for(uint i = 0; i<bidIds.length; i++) {\r\n            Bid memory bid = bidRegistry[bidIds[i]];\r\n            bidIds[i] = bid.bidId;\r\n            bidAmount[i] = bid.bidAmount;\r\n            wattHour[i] = (bid.timestampTo - bid.timestampFrom) * bid.watt;\r\n        }\r\n        return (bidIds, bidAmount, wattHour);\r\n\r\n    }\r\n\r\n    // function getDeviceUsage (bytes32 _deviceId)  public view returns (uint256[] memory, uint256[] memory) {\r\n        \r\n    //     DeviceUsage[] memory deviceUsages = deviceStatsRegistry[_deviceId];\r\n    //     uint256[] memory timestamp = new uint256[](deviceUsages.length);\r\n    //     uint256[] memory watt = new uint256[](deviceUsages.length);\r\n\r\n    //     for(uint i = 0; i<deviceUsages.length; i++) {\r\n    //         timestamp[i] = deviceUsages[i].timestamp;\r\n    //         watt[i] = deviceUsages[i].watt;\r\n            \r\n    //     }\r\n    //     return (timestamp, watt);\r\n    // }\r\n    //TODO change\r\n    function registerWinningBids(bytes32 _auctionId, bytes32[] memory _bidIds) public {\r\n        winningBidsRegistry[_auctionId] = _bidIds;\r\n        // uint256 totalPayout = 0;\r\n        // for(uint i = 0; i<_bidIds.length; i++){\r\n        //     Bid memory bid = bidRegistry[_bidIds[i]];\r\n        //     //erc20.transfer(bid.userAddress, bid.bidAmount);\r\n        //     totalPayout += bid.bidAmount;\r\n        // }\r\n        // BidResult memory bidResult = BidResult({\r\n        //     auctionId : _auctionId,\r\n        //     savedWattHour : _savedWattHours,\r\n        //     totalPayout : totalPayout\r\n        // });\r\n        // bidResults[_auctionId] = bidResult;\r\n        //emit BidClosed(_auctionId);\r\n    }\r\n\r\n    function getWinningBids(bytes32 _auctionId) public returns (bytes32[] memory, bytes32[] memory, uint256[] memory, uint256[] memory) {\r\n        bytes32[] memory bidIds = winningBidsRegistry[_auctionId];\r\n        uint256[] memory bidAmount = new uint256[](bidIds.length);\r\n        uint256[] memory wattHour = new uint256[](bidIds.length);\r\n        bytes32[] memory userIds = new bytes32[](bidIds.length);\r\n\r\n        for(uint256 i = 0; i<bidIds.length; i++) {\r\n            Bid memory bid = bidRegistry[bidIds[i]];\r\n            bidIds[i] = bid.bidId;\r\n            bidAmount[i] = bid.bidAmount;\r\n            userIds[i] = userRegistry[bid.userAddress].userId;\r\n            wattHour[i] = (bid.timestampTo - bid.timestampFrom) * bid.watt;\r\n        }\r\n        return (bidIds, userIds, bidAmount, wattHour);\r\n    }\r\n\r\n\r\n\r\n    function getParticipatingDevicesInAuctionPledge(bytes32 _auctionId) public returns (bytes32[] memory, bytes32[] memory, uint256[] memory, uint256[] memory) {\r\n        bytes32[] memory winningBidIds = winningBidsRegistry[_auctionId];\r\n\r\n        bytes32[] memory participatingDeviceIds = new bytes32[](winningBidIds.length);\r\n        bytes32[] memory participatingBidIds = new bytes32[](winningBidIds.length);\r\n        uint256[] memory timestampStart = new uint256[](winningBidIds.length);\r\n        uint256[] memory timestampEnd = new uint256[](winningBidIds.length);\r\n\r\n        for(uint256 i = 0; i<winningBidIds.length; i++) {\r\n            Bid memory bid = bidRegistry[winningBidIds[i]];\r\n            User memory user = userRegistry[bid.userAddress];\r\n            participatingDeviceIds[i] = user.device.deviceId;\r\n            participatingBidIds[i] = bid.bidId;\r\n            timestampStart[i] = bid.timestampFrom;\r\n            timestampEnd[i] = bid.timestampTo;\r\n        }\r\n        return (participatingDeviceIds,participatingBidIds,timestampStart,timestampEnd);\r\n    }\r\n\r\n    function incentivisePledgeKeepers(bytes32 _auctionId, bytes32[] memory _bidIds, bytes32[] memory _usageIds) public {\r\n        uint256 totalPayout = 0;\r\n        uint256 totalSavings = 0;\r\n        for(uint i = 0; i<_bidIds.length; i++){\r\n             Bid memory bid = bidRegistry[_bidIds[i]];\r\n             balanceRegistry[msg.sender] = balanceRegistry[msg.sender].sub(bid.bidAmount);\r\n             balanceRegistry[bid.userAddress] = balanceRegistry[bid.userAddress].add(bid.bidAmount);\r\n             totalPayout += bid.bidAmount;\r\n        }\r\n        for(uint256 i = 0; i<_usageIds.length; i++){\r\n            DeviceUsage memory deviceUsage = deviceStatsRegistry[_usageIds[i]];\r\n            totalSavings += deviceUsage.watt;\r\n        }\r\n        emit PledgeSuccessful(_auctionId, totalSavings, totalPayout);\r\n    }\r\n\r\n    \r\n\r\n    //getter functions\r\n    // function getUserRegistry(bytes32 _userId) public view  returns ( bytes32,address)  {\r\n    //     return (userRegistry[_userId].userId, userRegistry[_userId].userAddress);\r\n    // }\r\n\r\n  \r\n}\r\n",
  "sourcePath": "/home/himajit/bcx19-shakti/contracts/EnergyAuction.sol",
  "compiler": {
    "name": "solc",
    "version": "0.5.0+commit.1d4f565a.Emscripten.clang"
  },
  "schemaVersion": "3.0.9",
  "updatedAt": "2019-05-13T13:23:52.430Z",
  "devdoc": {
    "methods": {}
  },
  "userdoc": {
    "methods": {}
  }
}