{
  "contractName": "EnergyAuction",
  "abi": [
    {
      "inputs": [],
      "payable": false,
      "stateMutability": "nonpayable",
      "type": "constructor"
    },
    {
      "anonymous": false,
      "inputs": [
        {
          "indexed": true,
          "name": "_usageId",
          "type": "bytes32"
        },
        {
          "indexed": true,
          "name": "_deviceId",
          "type": "bytes32"
        },
        {
          "indexed": false,
          "name": "_timestamp",
          "type": "uint256"
        },
        {
          "indexed": false,
          "name": "_watt",
          "type": "uint256"
        }
      ],
      "name": "DeviceUsageRegistered",
      "type": "event"
    },
    {
      "anonymous": false,
      "inputs": [
        {
          "indexed": true,
          "name": "_auctionId",
          "type": "bytes32"
        },
        {
          "indexed": false,
          "name": "_totalSavedWatt",
          "type": "uint256"
        },
        {
          "indexed": false,
          "name": "_totalPayout",
          "type": "uint256"
        }
      ],
      "name": "PledgeSuccessful",
      "type": "event"
    },
    {
      "constant": false,
      "inputs": [
        {
          "name": "_userId",
          "type": "bytes32"
        },
        {
          "name": "_userType",
          "type": "uint8"
        },
        {
          "name": "_userAddress",
          "type": "address"
        },
        {
          "name": "_deviceId",
          "type": "bytes32"
        },
        {
          "name": "_deviceType",
          "type": "uint8"
        }
      ],
      "name": "createUser",
      "outputs": [],
      "payable": false,
      "stateMutability": "nonpayable",
      "type": "function"
    },
    {
      "constant": false,
      "inputs": [
        {
          "name": "_auctionId",
          "type": "bytes32"
        },
        {
          "name": "_totalIncentive",
          "type": "uint256"
        },
        {
          "name": "_wattHourGoalSavings",
          "type": "uint256"
        },
        {
          "name": "_bidStartTimestamp",
          "type": "uint256"
        },
        {
          "name": "_bidEndTimestamp",
          "type": "uint256"
        },
        {
          "name": "_offStartTimestamp",
          "type": "uint256"
        },
        {
          "name": "_offEndTimeStamp",
          "type": "uint256"
        },
        {
          "name": "_users",
          "type": "address[]"
        }
      ],
      "name": "createAuction",
      "outputs": [],
      "payable": false,
      "stateMutability": "nonpayable",
      "type": "function"
    },
    {
      "constant": false,
      "inputs": [
        {
          "name": "_auctionId",
          "type": "bytes32"
        },
        {
          "name": "_bidId",
          "type": "bytes32"
        },
        {
          "name": "_bidAmount",
          "type": "bytes32"
        },
        {
          "name": "_timestampFrom",
          "type": "uint256"
        },
        {
          "name": "_timestampTo",
          "type": "uint256"
        },
        {
          "name": "_watt",
          "type": "bytes32"
        }
      ],
      "name": "placeBid",
      "outputs": [],
      "payable": false,
      "stateMutability": "nonpayable",
      "type": "function"
    },
    {
      "constant": false,
      "inputs": [
        {
          "name": "_usageId",
          "type": "bytes32"
        },
        {
          "name": "_watt",
          "type": "uint256"
        }
      ],
      "name": "registerDeviceUsage",
      "outputs": [],
      "payable": false,
      "stateMutability": "nonpayable",
      "type": "function"
    },
    {
      "constant": false,
      "inputs": [
        {
          "name": "_userAddress",
          "type": "address"
        }
      ],
      "name": "getUser",
      "outputs": [
        {
          "name": "",
          "type": "bytes32"
        },
        {
          "name": "",
          "type": "bytes32"
        },
        {
          "name": "",
          "type": "uint8"
        },
        {
          "name": "",
          "type": "address"
        },
        {
          "name": "",
          "type": "uint8"
        },
        {
          "name": "",
          "type": "uint256"
        }
      ],
      "payable": false,
      "stateMutability": "nonpayable",
      "type": "function"
    },
    {
      "constant": false,
      "inputs": [
        {
          "name": "_auctionId",
          "type": "bytes32"
        }
      ],
      "name": "getAuction",
      "outputs": [
        {
          "name": "",
          "type": "bytes32"
        },
        {
          "name": "",
          "type": "uint256"
        },
        {
          "name": "",
          "type": "uint256"
        },
        {
          "name": "",
          "type": "uint256"
        },
        {
          "name": "",
          "type": "uint256"
        },
        {
          "name": "",
          "type": "uint256"
        },
        {
          "name": "",
          "type": "uint256"
        }
      ],
      "payable": false,
      "stateMutability": "nonpayable",
      "type": "function"
    },
    {
      "constant": false,
      "inputs": [
        {
          "name": "_auctionId",
          "type": "bytes32"
        }
      ],
      "name": "getAuctionBids",
      "outputs": [
        {
          "name": "",
          "type": "bytes32[]"
        },
        {
          "name": "",
          "type": "bytes32[]"
        },
        {
          "name": "",
          "type": "bytes32[]"
        }
      ],
      "payable": false,
      "stateMutability": "nonpayable",
      "type": "function"
    },
    {
      "constant": false,
      "inputs": [
        {
          "name": "_auctionId",
          "type": "bytes32"
        },
        {
          "name": "_bidIds",
          "type": "bytes32[]"
        }
      ],
      "name": "registerWinningBids",
      "outputs": [],
      "payable": false,
      "stateMutability": "nonpayable",
      "type": "function"
    },
    {
      "constant": false,
      "inputs": [
        {
          "name": "_auctionId",
          "type": "bytes32"
        }
      ],
      "name": "getWinningBids",
      "outputs": [
        {
          "name": "",
          "type": "bytes32[]"
        },
        {
          "name": "",
          "type": "bytes32[]"
        },
        {
          "name": "",
          "type": "bytes32[]"
        },
        {
          "name": "",
          "type": "bytes32[]"
        }
      ],
      "payable": false,
      "stateMutability": "nonpayable",
      "type": "function"
    },
    {
      "constant": false,
      "inputs": [
        {
          "name": "_auctionId",
          "type": "bytes32"
        }
      ],
      "name": "getParticipatingDevicesInAuctionPledge",
      "outputs": [
        {
          "name": "",
          "type": "bytes32[]"
        },
        {
          "name": "",
          "type": "bytes32[]"
        },
        {
          "name": "",
          "type": "uint256[]"
        },
        {
          "name": "",
          "type": "uint256[]"
        }
      ],
      "payable": false,
      "stateMutability": "nonpayable",
      "type": "function"
    }
  ],
  "bytecode": "0x608060405234801561001057600080fd5b5061c350600160003373ffffffffffffffffffffffffffffffffffffffff1673ffffffffffffffffffffffffffffffffffffffff16815260200190815260200160002081905550611d07806100666000396000f3fe608060405234801561001057600080fd5b506004361061009e5760003560e01c80639b680e7d116100665780639b680e7d146104e8578063a544d378146105fb578063a5cb5a6414610633578063b1e44e6e146106a5578063dfd400ab146107675761009e565b80630b8889be146100a357806315924b5b146101fe5780634e9f10471461026a5780636c5c39af146102ca5780636f77926b14610425575b600080fd5b6100cf600480360360208110156100b957600080fd5b8101908080359060200190929190505050610866565b6040518080602001806020018060200180602001858103855289818151815260200191508051906020019060200280838360005b8381101561011e578082015181840152602081019050610103565b50505050905001858103845288818151815260200191508051906020019060200280838360005b83811015610160578082015181840152602081019050610145565b50505050905001858103835287818151815260200191508051906020019060200280838360005b838110156101a2578082015181840152602081019050610187565b50505050905001858103825286818151815260200191508051906020019060200280838360005b838110156101e45780820151818401526020810190506101c9565b505050509050019850505050505050505060405180910390f35b61022a6004803603602081101561021457600080fd5b8101908080359060200190929190505050610b1f565b6040518088815260200187815260200186815260200185815260200184815260200183815260200182815260200197505050505050505060405180910390f35b6102c8600480360360c081101561028057600080fd5b81019080803590602001909291908035906020019092919080359060200190929190803590602001909291908035906020019092919080359060200190929190505050610bd5565b005b6102f6600480360360208110156102e057600080fd5b8101908080359060200190929190505050610d6d565b6040518080602001806020018060200180602001858103855289818151815260200191508051906020019060200280838360005b8381101561034557808201518184015260208101905061032a565b50505050905001858103845288818151815260200191508051906020019060200280838360005b8381101561038757808201518184015260208101905061036c565b50505050905001858103835287818151815260200191508051906020019060200280838360005b838110156103c95780820151818401526020810190506103ae565b50505050905001858103825286818151815260200191508051906020019060200280838360005b8381101561040b5780820151818401526020810190506103f0565b505050509050019850505050505050505060405180910390f35b6104676004803603602081101561043b57600080fd5b81019080803573ffffffffffffffffffffffffffffffffffffffff16906020019092919050505061114f565b6040518087815260200186815260200185600281111561048357fe5b60ff1681526020018473ffffffffffffffffffffffffffffffffffffffff1673ffffffffffffffffffffffffffffffffffffffff1681526020018360018111156104c957fe5b60ff168152602001828152602001965050505050505060405180910390f35b610514600480360360208110156104fe57600080fd5b81019080803590602001909291905050506112ff565b60405180806020018060200180602001848103845287818151815260200191508051906020019060200280838360005b8381101561055f578082015181840152602081019050610544565b50505050905001848103835286818151815260200191508051906020019060200280838360005b838110156105a1578082015181840152602081019050610586565b50505050905001848103825285818151815260200191508051906020019060200280838360005b838110156105e35780820151818401526020810190506105c8565b50505050905001965050505050505060405180910390f35b6106316004803603604081101561061157600080fd5b81019080803590602001909291908035906020019092919050505061158e565b005b6106a3600480360360a081101561064957600080fd5b8101908080359060200190929190803560ff169060200190929190803573ffffffffffffffffffffffffffffffffffffffff16906020019092919080359060200190929190803560ff169060200190929190505050611689565b005b610765600480360360408110156106bb57600080fd5b8101908080359060200190929190803590602001906401000000008111156106e257600080fd5b8201836020820111156106f457600080fd5b8035906020019184602083028401116401000000008311171561071657600080fd5b919080806020026020016040519081016040528093929190818152602001838360200280828437600081840152601f19601f820116905080830192505050505050509192919290505050611997565b005b610864600480360361010081101561077e57600080fd5b8101908080359060200190929190803590602001909291908035906020019092919080359060200190929190803590602001909291908035906020019092919080359060200190929190803590602001906401000000008111156107e157600080fd5b8201836020820111156107f357600080fd5b8035906020019184602083028401116401000000008311171561081557600080fd5b919080806020026020016040519081016040528093929190818152602001838360200280828437600081840152601f19601f8201169050808301925050505050505091929192905050506119c3565b005b6060806060806060600760008781526020019081526020016000208054806020026020016040519081016040528092919081815260200182805480156108cb57602002820191906000526020600020905b8154815260200190600101908083116108b7575b50505050509050606081516040519080825280602002602001820160405280156109045781602001602082028038833980820191505090505b509050606082516040519080825280602002602001820160405280156109395781602001602082028038833980820191505090505b5090506060835160405190808252806020026020018201604052801561096e5781602001602082028038833980820191505090505b50905060008090505b8451811015610b0757610988611b01565b6004600087848151811061099857fe5b602002602001015181526020019081526020016000206040518060c0016040529081600082015481526020016001820160009054906101000a900473ffffffffffffffffffffffffffffffffffffffff1673ffffffffffffffffffffffffffffffffffffffff1673ffffffffffffffffffffffffffffffffffffffff16815260200160028201548152602001600382015481526020016004820154815260200160058201548152505090508060000151868381518110610a5457fe5b6020026020010181815250508060400151858381518110610a7157fe5b60200260200101818152505060026000826020015173ffffffffffffffffffffffffffffffffffffffff1673ffffffffffffffffffffffffffffffffffffffff16815260200190815260200160002060000154838381518110610ad057fe5b6020026020010181815250508060a00151848381518110610aed57fe5b602002602001018181525050508080600101915050610977565b50838184849750975097509750505050509193509193565b6000806000806000806000610b32611b56565b600360008a81526020019081526020016000206040518060e00160405290816000820154815260200160018201548152602001600282015481526020016003820154815260200160048201548152602001600582015481526020016006820154815250509050806000015181602001518260400151836060015184608001518560a001518660c00151975097509750975097509750975050919395979092949650565b610bdd611b56565b600360008881526020019081526020016000206040518060e001604052908160008201548152602001600182015481526020016002820154815260200160038201548152602001600482015481526020016005820154815260200160068201548152505090506000429050610c50611b01565b6040518060c001604052808981526020013373ffffffffffffffffffffffffffffffffffffffff16815260200188815260200187815260200186815260200185815250905080600460008a81526020019081526020016000206000820151816000015560208201518160010160006101000a81548173ffffffffffffffffffffffffffffffffffffffff021916908373ffffffffffffffffffffffffffffffffffffffff16021790555060408201518160020155606082015181600301556080820151816004015560a08201518160050155905050600560008a8152602001908152602001600020889080600181540180825580915050906001820390600052602060002001600090919290919091505550505050505050505050565b606080606080606060076000878152602001908152602001600020805480602002602001604051908101604052809291908181526020018280548015610dd257602002820191906000526020600020905b815481526020019060010190808311610dbe575b5050505050905060608151604051908082528060200260200182016040528015610e0b5781602001602082028038833980820191505090505b50905060608251604051908082528060200260200182016040528015610e405781602001602082028038833980820191505090505b50905060608351604051908082528060200260200182016040528015610e755781602001602082028038833980820191505090505b50905060608451604051908082528060200260200182016040528015610eaa5781602001602082028038833980820191505090505b50905060008090505b855181101561113657610ec4611b01565b60046000888481518110610ed457fe5b602002602001015181526020019081526020016000206040518060c0016040529081600082015481526020016001820160009054906101000a900473ffffffffffffffffffffffffffffffffffffffff1673ffffffffffffffffffffffffffffffffffffffff1673ffffffffffffffffffffffffffffffffffffffff1681526020016002820154815260200160038201548152602001600482015481526020016005820154815250509050610f87611b96565b60026000836020015173ffffffffffffffffffffffffffffffffffffffff1673ffffffffffffffffffffffffffffffffffffffff1681526020019081526020016000206040518060800160405290816000820154815260200160018201604051806040016040529081600082015481526020016001820160009054906101000a900460ff16600281111561101757fe5b600281111561102257fe5b8152505081526020016003820160009054906101000a900473ffffffffffffffffffffffffffffffffffffffff1673ffffffffffffffffffffffffffffffffffffffff1673ffffffffffffffffffffffffffffffffffffffff1681526020016003820160149054906101000a900460ff16600181111561109e57fe5b60018111156110a957fe5b8152505090508060200151600001518784815181106110c457fe5b60200260200101818152505081600001518684815181106110e157fe5b60200260200101818152505081606001518584815181106110fe57fe5b602002602001018181525050816080015184848151811061111b57fe5b60200260200101818152505050508080600101915050610eb3565b5083838383985098509850985050505050509193509193565b600080600080600080611160611b96565b600260008973ffffffffffffffffffffffffffffffffffffffff1673ffffffffffffffffffffffffffffffffffffffff1681526020019081526020016000206040518060800160405290816000820154815260200160018201604051806040016040529081600082015481526020016001820160009054906101000a900460ff1660028111156111ec57fe5b60028111156111f757fe5b8152505081526020016003820160009054906101000a900473ffffffffffffffffffffffffffffffffffffffff1673ffffffffffffffffffffffffffffffffffffffff1673ffffffffffffffffffffffffffffffffffffffff1681526020016003820160149054906101000a900460ff16600181111561127357fe5b600181111561127e57fe5b81525050905080600001518160200151600001518260200151602001518360400151846060015160016000876040015173ffffffffffffffffffffffffffffffffffffffff1673ffffffffffffffffffffffffffffffffffffffff168152602001908152602001600020549650965096509650965096505091939550919395565b606080606061130c611b56565b600360008681526020019081526020016000206040518060e001604052908160008201548152602001600182015481526020016002820154815260200160038201548152602001600482015481526020016005820154815260200160068201548152505090506060600560008781526020019081526020016000208054806020026020016040519081016040528092919081815260200182805480156113d157602002820191906000526020600020905b8154815260200190600101908083116113bd575b505050505090506060815160405190808252806020026020018201604052801561140a5781602001602082028038833980820191505090505b5090506060825160405190808252806020026020018201604052801561143f5781602001602082028038833980820191505090505b50905060008090505b835181101561157957611459611b01565b6004600086848151811061146957fe5b602002602001015181526020019081526020016000206040518060c0016040529081600082015481526020016001820160009054906101000a900473ffffffffffffffffffffffffffffffffffffffff1673ffffffffffffffffffffffffffffffffffffffff1673ffffffffffffffffffffffffffffffffffffffff1681526020016002820154815260200160038201548152602001600482015481526020016005820154815250509050806000015185838151811061152557fe5b602002602001018181525050806040015184838151811061154257fe5b6020026020010181815250508060a0015183838151811061155f57fe5b602002602001018181525050508080600101915050611448565b50828282965096509650505050509193909250565b6000600260003373ffffffffffffffffffffffffffffffffffffffff1673ffffffffffffffffffffffffffffffffffffffff1681526020019081526020016000206001016000015490506115e0611be8565b604051806080016040528085815260200183815260200142815260200184815250905080600660008681526020019081526020016000206000820151816000015560208201518160010155604082015181600201556060820151816003015590505081847f413c7f69b16b85c62f07009f09af843b542f4a7e7c66d29f193de0fd32fb33064286604051808381526020018281526020019250505060405180910390a350505050565b611691611b96565b600260003373ffffffffffffffffffffffffffffffffffffffff1673ffffffffffffffffffffffffffffffffffffffff1681526020019081526020016000206040518060800160405290816000820154815260200160018201604051806040016040529081600082015481526020016001820160009054906101000a900460ff16600281111561171d57fe5b600281111561172857fe5b8152505081526020016003820160009054906101000a900473ffffffffffffffffffffffffffffffffffffffff1673ffffffffffffffffffffffffffffffffffffffff1673ffffffffffffffffffffffffffffffffffffffff1681526020016003820160149054906101000a900460ff1660018111156117a457fe5b60018111156117af57fe5b815250509050600060018111156117c257fe5b816060015160018111156117d257fe5b14611828576040517f08c379a000000000000000000000000000000000000000000000000000000000815260040180806020018281038252602b815260200180611cb1602b913960400191505060405180910390fd5b611830611b96565b6040518060800160405280888152602001604051806040016040528087815260200186600281111561185e57fe5b81525081526020018673ffffffffffffffffffffffffffffffffffffffff16815260200187600181111561188e57fe5b815250905080600260008773ffffffffffffffffffffffffffffffffffffffff1673ffffffffffffffffffffffffffffffffffffffff168152602001908152602001600020600082015181600001556020820151816001016000820151816000015560208201518160010160006101000a81548160ff0219169083600281111561191457fe5b0217905550505060408201518160030160006101000a81548173ffffffffffffffffffffffffffffffffffffffff021916908373ffffffffffffffffffffffffffffffffffffffff16021790555060608201518160030160146101000a81548160ff0219169083600181111561198657fe5b021790555090505050505050505050565b806007600084815260200190815260200160002090805190602001906119be929190611c16565b505050565b6119cb611b56565b6040518060e001604052808a815260200189815260200188815260200187815260200186815260200185815260200184815250905060008090505b8251811015611a98576001600860008c81526020019081526020016000206000858481518110611a3257fe5b602002602001015173ffffffffffffffffffffffffffffffffffffffff1673ffffffffffffffffffffffffffffffffffffffff16815260200190815260200160002060006101000a81548160ff0219169083151502179055508080600101915050611a06565b5080600360008b8152602001908152602001600020600082015181600001556020820151816001015560408201518160020155606082015181600301556080820151816004015560a0820151816005015560c08201518160060155905050505050505050505050565b6040518060c0016040528060008019168152602001600073ffffffffffffffffffffffffffffffffffffffff168152602001600080191681526020016000815260200160008152602001600080191681525090565b6040518060e00160405280600080191681526020016000815260200160008152602001600081526020016000815260200160008152602001600081525090565b6040518060a0016040528060008019168152602001611bb3611c63565b8152602001600073ffffffffffffffffffffffffffffffffffffffff16815260200160006001811115611be257fe5b81525090565b6040518060800160405280600080191681526020016000801916815260200160008152602001600081525090565b828054828255906000526020600020908101928215611c52579160200282015b82811115611c51578251825591602001919060010190611c36565b5b509050611c5f9190611c8b565b5090565b60405180604001604052806000801916815260200160006002811115611c8557fe5b81525090565b611cad91905b80821115611ca9576000816000905550600101611c91565b5090565b9056fe4f6e6c79204e474f2074797065206f6620557365722063616e20646f2074686973206f7065726174696f6ea165627a7a7230582077d171404a404c98cb154cc92b0e28a1daf52a85518c8af37a32674aca9363530029",
  "source": "pragma solidity ^0.5.0;\r\n\r\nimport \"./ERC20.sol\";\r\nimport \"./math/SafeMath.sol\";\r\n\r\ncontract EnergyAuction {\r\n\r\n    using SafeMath for uint256;\r\n\r\n    //----------------ENUM DECLARATIONS------------------\r\n    enum DeviceType {NONE, HVAC, Refrigerator} DeviceType dt;\r\n    enum UserType {NGO, END_USER} UserType ut;\r\n\r\n    //ERC20 private erc20;\r\n\r\n    constructor () public {\r\n        balanceRegistry[msg.sender] = 50000;\r\n    }\r\n\r\n    //mapping of user balances\r\n    mapping(address => uint256) balanceRegistry;\r\n    //mapping of user id and users\r\n    mapping(address => User) userRegistry;\r\n    //mapping of auction id and auction objects\r\n    mapping(bytes32 => Auction) auctionRegistry;\r\n\r\n    //mapping of bidId and bids\r\n    mapping(bytes32 => Bid) bidRegistry;\r\n\r\n    //mapping auctionId -> array of bid Ids\r\n    mapping(bytes32 => bytes32[]) auctionBidIdsRegistry;\r\n\r\n    //mapping usageId -> device usage\r\n    mapping(bytes32 => DeviceUsage) deviceStatsRegistry;\r\n\r\n    //mapping auction id -> bid Ids\r\n    mapping(bytes32 => bytes32[]) winningBidsRegistry;\r\n\r\n    //auction Id -> object of Bid Result\r\n    //mapping(bytes32 => BidResult) bidResults;\r\n\r\n    //mapping from auction id to selected users by the agent\r\n    mapping (bytes32 => mapping (address => bool)) auctionSelectedUsers;\r\n\r\n    //mapping (bytes32 => bytes32) notesMapping;\r\n\r\n    //event defintions\r\n    event DeviceUsageRegistered(bytes32 indexed _usageId, bytes32 indexed _deviceId, uint256 _timestamp, uint256 _watt);\r\n    event PledgeSuccessful(bytes32 indexed _auctionId, uint256 _totalSavedWatt, uint256 _totalPayout);\r\n\r\n    //user struct\r\n    struct User{\r\n        bytes32 userId;\r\n        Device device;\r\n        address userAddress;\r\n        UserType userType;\r\n    }\r\n    //device struct\r\n    struct Device{\r\n        bytes32 deviceId;\r\n        DeviceType deviceType;\r\n    }\r\n    //auction struct\r\n    struct Auction{\r\n        bytes32 auctionId;\r\n        uint256 totalIncentive;\r\n        uint256 wattHourGoalSavings;\r\n        uint256 bidStartTimestamp;\r\n        uint256 bidEndTimestamp;\r\n        uint256 offStartTimestamp;\r\n        uint256 offEndTimeStamp;\r\n    }\r\n    //bid struct\r\n    struct Bid {\r\n        bytes32 bidId;\r\n        address userAddress;\r\n        bytes32 bidAmount;\r\n        uint256 timestampFrom;\r\n        uint256 timestampTo;\r\n        bytes32 watt;\r\n    }\r\n    //bid result struct\r\n    // struct BidResult{\r\n    //     bytes32 auctionId;\r\n    //     uint256 savedWattHour;\r\n    //     uint256 totalPayout;\r\n    // }\r\n    //device usage struct\r\n    struct DeviceUsage {\r\n        bytes32 usageId;\r\n        bytes32 deviceId;\r\n        uint256 timestamp;\r\n        uint256 watt;\r\n    }\r\n\r\n    modifier onlyAdmin() {\r\n        User memory invokingUser = userRegistry[msg.sender];\r\n        require(invokingUser.userType == UserType.NGO, \"Only NGO type of User can do this operation\");\r\n        _;\r\n    }\r\n\r\n    //Fuctions related to operations on onboarding\r\n    function createUser(bytes32 _userId, UserType _userType, address _userAddress, bytes32 _deviceId, DeviceType _deviceType) public onlyAdmin{\r\n        User memory user = User({\r\n            userId:_userId,\r\n            userType:_userType,\r\n            userAddress:_userAddress,\r\n            device : Device(_deviceId,_deviceType)});\r\n        userRegistry[_userAddress] = user;\r\n    }\r\n\r\n    function createAuction(bytes32 _auctionId, uint256 _totalIncentive, uint256 _wattHourGoalSavings,\r\n        uint256 _bidStartTimestamp,uint256 _bidEndTimestamp,uint256 _offStartTimestamp,uint256 _offEndTimeStamp, address[] memory _users) public {\r\n\r\n        Auction memory auction = Auction({\r\n            auctionId : _auctionId,\r\n            totalIncentive : _totalIncentive,\r\n            wattHourGoalSavings : _wattHourGoalSavings,\r\n            bidStartTimestamp : _bidStartTimestamp,\r\n            bidEndTimestamp : _bidEndTimestamp,\r\n            offStartTimestamp : _offStartTimestamp,\r\n            offEndTimeStamp : _offEndTimeStamp\r\n            });\r\n        for (uint i = 0; i<_users.length; i++) {\r\n            auctionSelectedUsers[_auctionId][_users[i]] = true;\r\n        }\r\n        auctionRegistry[_auctionId] = auction;\r\n    }\r\n\r\n    function placeBid(bytes32 _auctionId, bytes32 _bidId, bytes32 _bidAmount,\r\n        uint256 _timestampFrom, uint256 _timestampTo, bytes32 _watt) public {\r\n        Auction memory auction = auctionRegistry[_auctionId];\r\n        //check for time\r\n        uint256 currentTimestamp = block.timestamp;\r\n\r\n//        require((auction.bidStartTimestamp<=currentTimestamp&&auction.bidEndTimestamp>=currentTimestamp),\r\n//            \"Bid time has passed for auction\");\r\n//        require(( _timestampFrom>=auction.offStartTimestamp&&_timestampFrom<=auction.offEndTimeStamp),\r\n//            \"Off Start time should fall under auction off timestamp\");\r\n//        require(( _timestampTo>=auction.offStartTimestamp && _timestampTo<=auction.offEndTimeStamp),\r\n//            \"Off Start time should fall under auction off timestamp\");\r\n        //require(( _timestampTo-_timestampFrom > 600000),\"Duration should be more than 10 minutes\");\r\n        //require(_bidAmount < 2,\"Max Bid Amount is 2 tokens\");\r\n\r\n        Bid memory bid = Bid ({\r\n            bidId : _bidId,\r\n            userAddress : msg.sender,\r\n            bidAmount : _bidAmount,\r\n            timestampFrom : _timestampFrom,\r\n            timestampTo : _timestampTo,\r\n            watt : _watt\r\n            });\r\n        bidRegistry[_bidId] = bid;\r\n        auctionBidIdsRegistry[_auctionId].push(_bidId);\r\n    }\r\n\r\n\r\n\r\n    function registerDeviceUsage (bytes32 _usageId, uint256 _watt) public{\r\n        bytes32 _deviceId = userRegistry[msg.sender].device.deviceId;\r\n        DeviceUsage memory deviceUsage = DeviceUsage ({\r\n            deviceId : _deviceId,\r\n            timestamp: block.timestamp,\r\n            watt:_watt,\r\n            usageId : _usageId\r\n            });\r\n        deviceStatsRegistry[_usageId] = deviceUsage;\r\n        emit DeviceUsageRegistered(_usageId, _deviceId, block.timestamp, _watt);\r\n    }\r\n\r\n    function getUser(address _userAddress) public returns (bytes32, bytes32, DeviceType, address, UserType, uint256) {\r\n        User memory user = userRegistry[_userAddress];\r\n        //uint256 balance = erc20.getBalance(_userAddress);\r\n        return (user.userId, user.device.deviceId, user.device.deviceType, user.userAddress, user.userType, balanceRegistry[user.userAddress]);\r\n    }\r\n\r\n\r\n    function getAuction(bytes32 _auctionId) public returns (bytes32, uint256, uint256, uint256, uint256, uint256, uint256) {\r\n        Auction memory auction = auctionRegistry[_auctionId];\r\n        return (auction.auctionId, auction.totalIncentive,\r\n        auction.wattHourGoalSavings, auction.bidStartTimestamp,\r\n        auction.bidEndTimestamp, auction.offStartTimestamp, auction.offEndTimeStamp);\r\n    }\r\n\r\n    function getAuctionBids (bytes32 _auctionId)  public returns (bytes32[] memory, bytes32[] memory, bytes32[] memory) {\r\n        //check if bid duration is closed\r\n        Auction memory auction = auctionRegistry[_auctionId];\r\n\r\n//        require ((auction.bidStartTimestamp < block.timestamp && block.timestamp > auction.bidEndTimestamp),\r\n//            \"Bids should be fetched after bid is closed\");\r\n\r\n        bytes32[] memory bidIds = auctionBidIdsRegistry[_auctionId];\r\n        bytes32[] memory bidAmount = new bytes32[](bidIds.length);\r\n        bytes32[] memory wattHour = new bytes32[](bidIds.length);\r\n\r\n        for(uint i = 0; i<bidIds.length; i++) {\r\n            Bid memory bid = bidRegistry[bidIds[i]];\r\n            bidIds[i] = bid.bidId;\r\n            bidAmount[i] = bid.bidAmount;\r\n            wattHour[i] = bid.watt;\r\n        }\r\n        return (bidIds, bidAmount, wattHour);\r\n\r\n    }\r\n\r\n    // function getDeviceUsage (bytes32 _deviceId)  public view returns (uint256[] memory, uint256[] memory) {\r\n\r\n    //     DeviceUsage[] memory deviceUsages = deviceStatsRegistry[_deviceId];\r\n    //     uint256[] memory timestamp = new uint256[](deviceUsages.length);\r\n    //     uint256[] memory watt = new uint256[](deviceUsages.length);\r\n\r\n    //     for(uint i = 0; i<deviceUsages.length; i++) {\r\n    //         timestamp[i] = deviceUsages[i].timestamp;\r\n    //         watt[i] = deviceUsages[i].watt;\r\n\r\n    //     }\r\n    //     return (timestamp, watt);\r\n    // }\r\n    //TODO change\r\n    function registerWinningBids(bytes32 _auctionId, bytes32[] memory _bidIds) public {\r\n        winningBidsRegistry[_auctionId] = _bidIds;\r\n        // uint256 totalPayout = 0;\r\n        // for(uint i = 0; i<_bidIds.length; i++){\r\n        //     Bid memory bid = bidRegistry[_bidIds[i]];\r\n        //     //erc20.transfer(bid.userAddress, bid.bidAmount);\r\n        //     totalPayout += bid.bidAmount;\r\n        // }\r\n        // BidResult memory bidResult = BidResult({\r\n        //     auctionId : _auctionId,\r\n        //     savedWattHour : _savedWattHours,\r\n        //     totalPayout : totalPayout\r\n        // });\r\n        // bidResults[_auctionId] = bidResult;\r\n        //emit BidClosed(_auctionId);\r\n    }\r\n\r\n    function getWinningBids(bytes32 _auctionId) public returns (bytes32[] memory, bytes32[] memory, bytes32[] memory, bytes32[] memory) {\r\n        bytes32[] memory bidIds = winningBidsRegistry[_auctionId];\r\n        bytes32[] memory bidAmount = new bytes32[](bidIds.length);\r\n        bytes32[] memory wattHour = new bytes32[](bidIds.length);\r\n        bytes32[] memory userIds = new bytes32[](bidIds.length);\r\n\r\n        for(uint256 i = 0; i<bidIds.length; i++) {\r\n            Bid memory bid = bidRegistry[bidIds[i]];\r\n            bidIds[i] = bid.bidId;\r\n            bidAmount[i] = bid.bidAmount;\r\n            userIds[i] = userRegistry[bid.userAddress].userId;\r\n            wattHour[i] = bid.watt;\r\n        }\r\n        return (bidIds, userIds, bidAmount, wattHour);\r\n    }\r\n\r\n\r\n\r\n    function getParticipatingDevicesInAuctionPledge(bytes32 _auctionId) public returns (bytes32[] memory, bytes32[] memory, uint256[] memory, uint256[] memory) {\r\n        bytes32[] memory winningBidIds = winningBidsRegistry[_auctionId];\r\n\r\n        bytes32[] memory participatingDeviceIds = new bytes32[](winningBidIds.length);\r\n        bytes32[] memory participatingBidIds = new bytes32[](winningBidIds.length);\r\n        uint256[] memory timestampStart = new uint256[](winningBidIds.length);\r\n        uint256[] memory timestampEnd = new uint256[](winningBidIds.length);\r\n\r\n        for(uint256 i = 0; i<winningBidIds.length; i++) {\r\n            Bid memory bid = bidRegistry[winningBidIds[i]];\r\n            User memory user = userRegistry[bid.userAddress];\r\n            participatingDeviceIds[i] = user.device.deviceId;\r\n            participatingBidIds[i] = bid.bidId;\r\n            timestampStart[i] = bid.timestampFrom;\r\n            timestampEnd[i] = bid.timestampTo;\r\n        }\r\n        return (participatingDeviceIds,participatingBidIds,timestampStart,timestampEnd);\r\n    }\r\n\r\n//    function incentivisePledgeKeepers(bytes32 _auctionId, bytes32[] memory _bidIds, bytes32[] memory _usageIds) public {\r\n//        uint256 totalPayout = 0;\r\n//        uint256 totalSavings = 0;\r\n//        for(uint i = 0; i<_bidIds.length; i++){\r\n//            Bid memory bid = bidRegistry[_bidIds[i]];\r\n//            balanceRegistry[msg.sender] = balanceRegistry[msg.sender].sub(bid.bidAmount);\r\n//            balanceRegistry[bid.userAddress] = balanceRegistry[bid.userAddress].add(bid.bidAmount);\r\n//            totalPayout += bid.bidAmount;\r\n//        }\r\n//        for(uint256 i = 0; i<_usageIds.length; i++){\r\n//            DeviceUsage memory deviceUsage = deviceStatsRegistry[_usageIds[i]];\r\n//            totalSavings += deviceUsage.watt;\r\n//        }\r\n//        emit PledgeSuccessful(_auctionId, totalSavings, totalPayout);\r\n//    }\r\n\r\n\r\n\r\n    //getter functions\r\n    // function getUserRegistry(bytes32 _userId) public view  returns ( bytes32,address)  {\r\n    //     return (userRegistry[_userId].userId, userRegistry[_userId].userAddress);\r\n    // }\r\n\r\n\r\n}\r\n",
  "sourcePath": "/home/ubuntu/eth-hack/contracts/EnergyAuction.sol",
  "compiler": {
    "name": "solc",
    "version": "0.5.8+commit.23d335f2.Emscripten.clang"
  },
  "schemaVersion": "3.0.10",
  "updatedAt": "2019-08-03T11:09:58.127Z",
  "devdoc": {
    "methods": {}
  },
  "userdoc": {
    "methods": {}
  }
}